{
  "_format": "hh-sol-artifact-1",
  "contractName": "Lazy",
  "sourceName": "contracts/Lazy.sol",
  "abi": [
    {
      "inputs": [],
      "stateMutability": "nonpayable",
      "type": "constructor"
    },
    {
      "anonymous": false,
      "inputs": [
        {
          "indexed": true,
          "internalType": "address",
          "name": "owner",
          "type": "address"
        },
        {
          "indexed": true,
          "internalType": "address",
          "name": "approved",
          "type": "address"
        },
        {
          "indexed": true,
          "internalType": "uint256",
          "name": "tokenId",
          "type": "uint256"
        }
      ],
      "name": "Approval",
      "type": "event"
    },
    {
      "anonymous": false,
      "inputs": [
        {
          "indexed": true,
          "internalType": "address",
          "name": "owner",
          "type": "address"
        },
        {
          "indexed": true,
          "internalType": "address",
          "name": "operator",
          "type": "address"
        },
        {
          "indexed": false,
          "internalType": "bool",
          "name": "approved",
          "type": "bool"
        }
      ],
      "name": "ApprovalForAll",
      "type": "event"
    },
    {
      "anonymous": false,
      "inputs": [
        {
          "indexed": true,
          "internalType": "address",
          "name": "from",
          "type": "address"
        },
        {
          "indexed": true,
          "internalType": "address",
          "name": "to",
          "type": "address"
        },
        {
          "indexed": true,
          "internalType": "uint256",
          "name": "tokenId",
          "type": "uint256"
        }
      ],
      "name": "Transfer",
      "type": "event"
    },
    {
      "inputs": [
        {
          "internalType": "address",
          "name": "to",
          "type": "address"
        },
        {
          "internalType": "uint256",
          "name": "tokenId",
          "type": "uint256"
        }
      ],
      "name": "approve",
      "outputs": [],
      "stateMutability": "nonpayable",
      "type": "function"
    },
    {
      "inputs": [
        {
          "internalType": "address",
          "name": "owner",
          "type": "address"
        }
      ],
      "name": "balanceOf",
      "outputs": [
        {
          "internalType": "uint256",
          "name": "",
          "type": "uint256"
        }
      ],
      "stateMutability": "view",
      "type": "function"
    },
    {
      "inputs": [
        {
          "internalType": "uint256",
          "name": "tokenId",
          "type": "uint256"
        }
      ],
      "name": "getApproved",
      "outputs": [
        {
          "internalType": "address",
          "name": "",
          "type": "address"
        }
      ],
      "stateMutability": "view",
      "type": "function"
    },
    {
      "inputs": [],
      "name": "getNFTs",
      "outputs": [
        {
          "components": [
            {
              "internalType": "string",
              "name": "name",
              "type": "string"
            },
            {
              "internalType": "string",
              "name": "description",
              "type": "string"
            },
            {
              "internalType": "string",
              "name": "imageUrl",
              "type": "string"
            },
            {
              "internalType": "uint256",
              "name": "tokenId",
              "type": "uint256"
            },
            {
              "internalType": "address",
              "name": "owner",
              "type": "address"
            },
            {
              "internalType": "uint256",
              "name": "price",
              "type": "uint256"
            }
          ],
          "internalType": "struct Lazy.NFTStruct[]",
          "name": "NFTs",
          "type": "tuple[]"
        }
      ],
      "stateMutability": "view",
      "type": "function"
    },
    {
      "inputs": [
        {
          "internalType": "address",
          "name": "owner",
          "type": "address"
        },
        {
          "internalType": "address",
          "name": "operator",
          "type": "address"
        }
      ],
      "name": "isApprovedForAll",
      "outputs": [
        {
          "internalType": "bool",
          "name": "",
          "type": "bool"
        }
      ],
      "stateMutability": "view",
      "type": "function"
    },
    {
      "inputs": [
        {
          "internalType": "string",
          "name": "name",
          "type": "string"
        },
        {
          "internalType": "string",
          "name": "description",
          "type": "string"
        },
        {
          "internalType": "string",
          "name": "imageUrl",
          "type": "string"
        },
        {
          "internalType": "uint256",
          "name": "price",
          "type": "uint256"
        }
      ],
      "name": "mint",
      "outputs": [],
      "stateMutability": "payable",
      "type": "function"
    },
    {
      "inputs": [],
      "name": "name",
      "outputs": [
        {
          "internalType": "string",
          "name": "",
          "type": "string"
        }
      ],
      "stateMutability": "view",
      "type": "function"
    },
    {
      "inputs": [
        {
          "internalType": "uint256",
          "name": "tokenId",
          "type": "uint256"
        }
      ],
      "name": "ownerOf",
      "outputs": [
        {
          "internalType": "address",
          "name": "",
          "type": "address"
        }
      ],
      "stateMutability": "view",
      "type": "function"
    },
    {
      "inputs": [
        {
          "internalType": "address",
          "name": "from",
          "type": "address"
        },
        {
          "internalType": "address",
          "name": "to",
          "type": "address"
        },
        {
          "internalType": "uint256",
          "name": "tokenId",
          "type": "uint256"
        }
      ],
      "name": "safeTransferFrom",
      "outputs": [],
      "stateMutability": "nonpayable",
      "type": "function"
    },
    {
      "inputs": [
        {
          "internalType": "address",
          "name": "from",
          "type": "address"
        },
        {
          "internalType": "address",
          "name": "to",
          "type": "address"
        },
        {
          "internalType": "uint256",
          "name": "tokenId",
          "type": "uint256"
        },
        {
          "internalType": "bytes",
          "name": "data",
          "type": "bytes"
        }
      ],
      "name": "safeTransferFrom",
      "outputs": [],
      "stateMutability": "nonpayable",
      "type": "function"
    },
    {
      "inputs": [
        {
          "internalType": "address",
          "name": "operator",
          "type": "address"
        },
        {
          "internalType": "bool",
          "name": "approved",
          "type": "bool"
        }
      ],
      "name": "setApprovalForAll",
      "outputs": [],
      "stateMutability": "nonpayable",
      "type": "function"
    },
    {
      "inputs": [
        {
          "internalType": "bytes4",
          "name": "interfaceId",
          "type": "bytes4"
        }
      ],
      "name": "supportsInterface",
      "outputs": [
        {
          "internalType": "bool",
          "name": "",
          "type": "bool"
        }
      ],
      "stateMutability": "view",
      "type": "function"
    },
    {
      "inputs": [],
      "name": "symbol",
      "outputs": [
        {
          "internalType": "string",
          "name": "",
          "type": "string"
        }
      ],
      "stateMutability": "view",
      "type": "function"
    },
    {
      "inputs": [
        {
          "internalType": "uint256",
          "name": "tokenId",
          "type": "uint256"
        }
      ],
      "name": "tokenURI",
      "outputs": [
        {
          "internalType": "string",
          "name": "",
          "type": "string"
        }
      ],
      "stateMutability": "view",
      "type": "function"
    },
    {
      "inputs": [
        {
          "internalType": "address",
          "name": "from",
          "type": "address"
        },
        {
          "internalType": "address",
          "name": "to",
          "type": "address"
        },
        {
          "internalType": "uint256",
          "name": "tokenId",
          "type": "uint256"
        }
      ],
      "name": "transferFrom",
      "outputs": [],
      "stateMutability": "nonpayable",
      "type": "function"
    }
  ],
  "bytecode": "0x608060405266470de4df8200006007553480156200001c57600080fd5b50604051806040016040528060098152602001682630bd3c9021b7b4b760b91b815250604051806040016040528060038152602001624c5a4360e81b81525081600090816200006c919062000129565b5060016200007b828262000129565b505050620001f5565b634e487b7160e01b600052604160045260246000fd5b600181811c90821680620000af57607f821691505b602082108103620000d057634e487b7160e01b600052602260045260246000fd5b50919050565b601f8211156200012457600081815260208120601f850160051c81016020861015620000ff5750805b601f850160051c820191505b8181101562000120578281556001016200010b565b5050505b505050565b81516001600160401b0381111562000145576200014562000084565b6200015d816200015684546200009a565b84620000d6565b602080601f8311600181146200019557600084156200017c5750858301515b600019600386901b1c1916600185901b17855562000120565b600085815260208120601f198616915b82811015620001c657888601518255948401946001909101908401620001a5565b5085821015620001e55787850151600019600388901b60f8161c191681555b5050505050600190811b01905550565b611cd180620002056000396000f3fe6080604052600436106100e85760003560e01c806342842e0e1161008a578063a22cb46511610059578063a22cb46514610276578063b88d4fde14610296578063c87b56dd146102b6578063e985e9c5146102d657600080fd5b806342842e0e146101f35780636352211e1461021357806370a082311461023357806395d89b411461026157600080fd5b8063095ea7b3116100c6578063095ea7b31461017c578063227212f21461019e57806323b872dd146101c057806331b6475c146101e057600080fd5b806301ffc9a7146100ed57806306fdde0314610122578063081812fc14610144575b600080fd5b3480156100f957600080fd5b5061010d610108366004611522565b6102f6565b60405190151581526020015b60405180910390f35b34801561012e57600080fd5b50610137610348565b604051610119919061158f565b34801561015057600080fd5b5061016461015f3660046115a2565b6103da565b6040516001600160a01b039091168152602001610119565b34801561018857600080fd5b5061019c6101973660046115d7565b610401565b005b3480156101aa57600080fd5b506101b361051b565b6040516101199190611601565b3480156101cc57600080fd5b5061019c6101db3660046116c9565b6107de565b61019c6101ee3660046117b1565b61080f565b3480156101ff57600080fd5b5061019c61020e3660046116c9565b610a42565b34801561021f57600080fd5b5061016461022e3660046115a2565b610a5d565b34801561023f57600080fd5b5061025361024e366004611841565b610abd565b604051908152602001610119565b34801561026d57600080fd5b50610137610b43565b34801561028257600080fd5b5061019c61029136600461185c565b610b52565b3480156102a257600080fd5b5061019c6102b1366004611898565b610b61565b3480156102c257600080fd5b506101376102d13660046115a2565b610b99565b3480156102e257600080fd5b5061010d6102f1366004611914565b610c0d565b60006001600160e01b031982166380ac58cd60e01b148061032757506001600160e01b03198216635b5e139f60e01b145b8061034257506301ffc9a760e01b6001600160e01b03198316145b92915050565b60606000805461035790611947565b80601f016020809104026020016040519081016040528092919081815260200182805461038390611947565b80156103d05780601f106103a5576101008083540402835291602001916103d0565b820191906000526020600020905b8154815290600101906020018083116103b357829003601f168201915b5050505050905090565b60006103e582610c3b565b506000908152600460205260409020546001600160a01b031690565b600061040c82610a5d565b9050806001600160a01b0316836001600160a01b03160361047e5760405162461bcd60e51b815260206004820152602160248201527f4552433732313a20617070726f76616c20746f2063757272656e74206f776e656044820152603960f91b60648201526084015b60405180910390fd5b336001600160a01b038216148061049a575061049a8133610c0d565b61050c5760405162461bcd60e51b815260206004820152603d60248201527f4552433732313a20617070726f76652063616c6c6572206973206e6f7420746f60448201527f6b656e206f776e6572206f7220617070726f76656420666f7220616c6c0000006064820152608401610475565b6105168383610c9d565b505050565b606061053e604051806060016040528060348152602001611c6860349139610d0b565b60065467ffffffffffffffff81111561055957610559611705565b60405190808252806020026020018201604052801561059257816020015b61057f6114cd565b8152602001906001900390816105775790505b50905060005b6006548110156107da57600860006105b1836001611997565b81526020019081526020016000206040518060c00160405290816000820180546105da90611947565b80601f016020809104026020016040519081016040528092919081815260200182805461060690611947565b80156106535780601f1061062857610100808354040283529160200191610653565b820191906000526020600020905b81548152906001019060200180831161063657829003601f168201915b5050505050815260200160018201805461066c90611947565b80601f016020809104026020016040519081016040528092919081815260200182805461069890611947565b80156106e55780601f106106ba576101008083540402835291602001916106e5565b820191906000526020600020905b8154815290600101906020018083116106c857829003601f168201915b505050505081526020016002820180546106fe90611947565b80601f016020809104026020016040519081016040528092919081815260200182805461072a90611947565b80156107775780601f1061074c57610100808354040283529160200191610777565b820191906000526020600020905b81548152906001019060200180831161075a57829003601f168201915b50505091835250506003820154602082015260048201546001600160a01b0316604082015260059091015460609091015282518390839081106107bc576107bc6119aa565b602002602001018190525080806107d2906119c0565b915050610598565b5090565b6107e83382610d4e565b6108045760405162461bcd60e51b8152600401610475906119d9565b610516838383610dad565b610830604051806060016040528060348152602001611c6860349139610d0b565b6007543410156108785760405162461bcd60e51b8152602060048201526013602482015272125b9cdd59999a58da595b9d08185b5bdd5b9d606a1b6044820152606401610475565b60008451116108c05760405162461bcd60e51b81526020600482015260146024820152736e616d652063616e6e6f7420626520656d70747960601b6044820152606401610475565b60008351116109115760405162461bcd60e51b815260206004820152601b60248201527f6465736372697074696f6e2063616e6e6f7420626520656d70747900000000006044820152606401610475565b60008251116109625760405162461bcd60e51b815260206004820152601860248201527f696d61676555726c2063616e6e6f7420626520656d70747900000000000000006044820152606401610475565b610970600680546001019055565b600061097b60065490565b90506109873382610f1e565b61098f6114cd565b606081018290528581526020808201869052604080830186905260a08301859052336080840152600084815260089092529020815182919081906109d39082611a74565b50602082015160018201906109e89082611a74565b50604082015160028201906109fd9082611a74565b506060820151600382015560808201516004820180546001600160a01b0319166001600160a01b0390921691909117905560a090910151600590910155505050505050565b61051683838360405180602001604052806000815250610b61565b6000818152600260205260408120546001600160a01b0316806103425760405162461bcd60e51b8152602060048201526018602482015277115490cdcc8c4e881a5b9d985b1a59081d1bdad95b88125160421b6044820152606401610475565b60006001600160a01b038216610b275760405162461bcd60e51b815260206004820152602960248201527f4552433732313a2061646472657373207a65726f206973206e6f7420612076616044820152683634b21037bbb732b960b91b6064820152608401610475565b506001600160a01b031660009081526003602052604090205490565b60606001805461035790611947565b610b5d3383836110b7565b5050565b610b6b3383610d4e565b610b875760405162461bcd60e51b8152600401610475906119d9565b610b9384848484611185565b50505050565b6060610ba482610c3b565b6000610bbb60408051602081019091526000815290565b90506000815111610bdb5760405180602001604052806000815250610c06565b80610be5846111b8565b604051602001610bf6929190611b34565b6040516020818303038152906040525b9392505050565b6001600160a01b03918216600090815260056020908152604080832093909416825291909152205460ff1690565b6000818152600260205260409020546001600160a01b0316610c9a5760405162461bcd60e51b8152602060048201526018602482015277115490cdcc8c4e881a5b9d985b1a59081d1bdad95b88125160421b6044820152606401610475565b50565b600081815260046020526040902080546001600160a01b0319166001600160a01b0384169081179091558190610cd282610a5d565b6001600160a01b03167f8c5be1e5ebec7d5bd14f71427d1e84f3dd0314c0f7b2291e5b200ac8c7c3b92560405160405180910390a45050565b610c9a81604051602401610d1f919061158f565b60408051601f198184030181529190526020810180516001600160e01b031663104c13eb60e21b17905261124b565b600080610d5a83610a5d565b9050806001600160a01b0316846001600160a01b03161480610d815750610d818185610c0d565b80610da55750836001600160a01b0316610d9a846103da565b6001600160a01b0316145b949350505050565b826001600160a01b0316610dc082610a5d565b6001600160a01b031614610de65760405162461bcd60e51b815260040161047590611b63565b6001600160a01b038216610e485760405162461bcd60e51b8152602060048201526024808201527f4552433732313a207472616e7366657220746f20746865207a65726f206164646044820152637265737360e01b6064820152608401610475565b610e55838383600161126c565b826001600160a01b0316610e6882610a5d565b6001600160a01b031614610e8e5760405162461bcd60e51b815260040161047590611b63565b600081815260046020908152604080832080546001600160a01b03199081169091556001600160a01b0387811680865260038552838620805460001901905590871680865283862080546001019055868652600290945282852080549092168417909155905184937fddf252ad1be2c89b69c2b068fc378daa952ba7f163c4a11628f55a4df523b3ef91a4505050565b6001600160a01b038216610f745760405162461bcd60e51b815260206004820181905260248201527f4552433732313a206d696e7420746f20746865207a65726f20616464726573736044820152606401610475565b6000818152600260205260409020546001600160a01b031615610fd95760405162461bcd60e51b815260206004820152601c60248201527f4552433732313a20746f6b656e20616c7265616479206d696e746564000000006044820152606401610475565b610fe760008383600161126c565b6000818152600260205260409020546001600160a01b03161561104c5760405162461bcd60e51b815260206004820152601c60248201527f4552433732313a20746f6b656e20616c7265616479206d696e746564000000006044820152606401610475565b6001600160a01b038216600081815260036020908152604080832080546001019055848352600290915280822080546001600160a01b0319168417905551839291907fddf252ad1be2c89b69c2b068fc378daa952ba7f163c4a11628f55a4df523b3ef908290a45050565b816001600160a01b0316836001600160a01b0316036111185760405162461bcd60e51b815260206004820152601960248201527f4552433732313a20617070726f766520746f2063616c6c6572000000000000006044820152606401610475565b6001600160a01b03838116600081815260056020908152604080832094871680845294825291829020805460ff191686151590811790915591519182527f17307eab39ab6107e8899845ad3d59bd9653f200f220920489ca2b5937696c31910160405180910390a3505050565b611190848484610dad565b61119c848484846112f4565b610b935760405162461bcd60e51b815260040161047590611ba8565b606060006111c5836113f5565b600101905060008167ffffffffffffffff8111156111e5576111e5611705565b6040519080825280601f01601f19166020018201604052801561120f576020820181803683370190505b5090508181016020015b600019016f181899199a1a9b1b9c1cb0b131b232b360811b600a86061a8153600a850494508461121957509392505050565b80516a636f6e736f6c652e6c6f67602083016000808483855afa5050505050565b6001811115610b93576001600160a01b038416156112b2576001600160a01b038416600090815260036020526040812080548392906112ac908490611bfa565b90915550505b6001600160a01b03831615610b93576001600160a01b038316600090815260036020526040812080548392906112e9908490611997565b909155505050505050565b60006001600160a01b0384163b156113ea57604051630a85bd0160e11b81526001600160a01b0385169063150b7a0290611338903390899088908890600401611c0d565b6020604051808303816000875af1925050508015611373575060408051601f3d908101601f1916820190925261137091810190611c4a565b60015b6113d0573d8080156113a1576040519150601f19603f3d011682016040523d82523d6000602084013e6113a6565b606091505b5080516000036113c85760405162461bcd60e51b815260040161047590611ba8565b805181602001fd5b6001600160e01b031916630a85bd0160e11b149050610da5565b506001949350505050565b60008072184f03e93ff9f4daa797ed6e38ed64bf6a1f0160401b83106114345772184f03e93ff9f4daa797ed6e38ed64bf6a1f0160401b830492506040015b6d04ee2d6d415b85acef81000000008310611460576d04ee2d6d415b85acef8100000000830492506020015b662386f26fc10000831061147e57662386f26fc10000830492506010015b6305f5e1008310611496576305f5e100830492506008015b61271083106114aa57612710830492506004015b606483106114bc576064830492506002015b600a83106103425760010192915050565b6040518060c001604052806060815260200160608152602001606081526020016000815260200160006001600160a01b03168152602001600081525090565b6001600160e01b031981168114610c9a57600080fd5b60006020828403121561153457600080fd5b8135610c068161150c565b60005b8381101561155a578181015183820152602001611542565b50506000910152565b6000815180845261157b81602086016020860161153f565b601f01601f19169290920160200192915050565b602081526000610c066020830184611563565b6000602082840312156115b457600080fd5b5035919050565b80356001600160a01b03811681146115d257600080fd5b919050565b600080604083850312156115ea57600080fd5b6115f3836115bb565b946020939093013593505050565b60006020808301818452808551808352604092508286019150828160051b87010184880160005b838110156116bb57603f19898403018552815160c0815181865261164e82870182611563565b915050888201518582038a8701526116668282611563565b915050878201518582038987015261167e8282611563565b606084810151908801526080808501516001600160a01b03169088015260a093840151939096019290925250509386019390860190600101611628565b509098975050505050505050565b6000806000606084860312156116de57600080fd5b6116e7846115bb565b92506116f5602085016115bb565b9150604084013590509250925092565b634e487b7160e01b600052604160045260246000fd5b600067ffffffffffffffff8084111561173657611736611705565b604051601f8501601f19908116603f0116810190828211818310171561175e5761175e611705565b8160405280935085815286868601111561177757600080fd5b858560208301376000602087830101525050509392505050565b600082601f8301126117a257600080fd5b610c068383356020850161171b565b600080600080608085870312156117c757600080fd5b843567ffffffffffffffff808211156117df57600080fd5b6117eb88838901611791565b9550602087013591508082111561180157600080fd5b61180d88838901611791565b9450604087013591508082111561182357600080fd5b5061183087828801611791565b949793965093946060013593505050565b60006020828403121561185357600080fd5b610c06826115bb565b6000806040838503121561186f57600080fd5b611878836115bb565b91506020830135801515811461188d57600080fd5b809150509250929050565b600080600080608085870312156118ae57600080fd5b6118b7856115bb565b93506118c5602086016115bb565b925060408501359150606085013567ffffffffffffffff8111156118e857600080fd5b8501601f810187136118f957600080fd5b6119088782356020840161171b565b91505092959194509250565b6000806040838503121561192757600080fd5b611930836115bb565b915061193e602084016115bb565b90509250929050565b600181811c9082168061195b57607f821691505b60208210810361197b57634e487b7160e01b600052602260045260246000fd5b50919050565b634e487b7160e01b600052601160045260246000fd5b8082018082111561034257610342611981565b634e487b7160e01b600052603260045260246000fd5b6000600182016119d2576119d2611981565b5060010190565b6020808252602d908201527f4552433732313a2063616c6c6572206973206e6f7420746f6b656e206f776e6560408201526c1c881bdc88185c1c1c9bdd9959609a1b606082015260800190565b601f82111561051657600081815260208120601f850160051c81016020861015611a4d5750805b601f850160051c820191505b81811015611a6c57828155600101611a59565b505050505050565b815167ffffffffffffffff811115611a8e57611a8e611705565b611aa281611a9c8454611947565b84611a26565b602080601f831160018114611ad75760008415611abf5750858301515b600019600386901b1c1916600185901b178555611a6c565b600085815260208120601f198616915b82811015611b0657888601518255948401946001909101908401611ae7565b5085821015611b245787850151600019600388901b60f8161c191681555b5050505050600190811b01905550565b60008351611b4681846020880161153f565b835190830190611b5a81836020880161153f565b01949350505050565b60208082526025908201527f4552433732313a207472616e736665722066726f6d20696e636f72726563742060408201526437bbb732b960d91b606082015260800190565b60208082526032908201527f4552433732313a207472616e7366657220746f206e6f6e20455243373231526560408201527131b2b4bb32b91034b6b83632b6b2b73a32b960711b606082015260800190565b8181038181111561034257610342611981565b6001600160a01b0385811682528416602082015260408101839052608060608201819052600090611c4090830184611563565b9695505050505050565b600060208284031215611c5c57600080fd5b8151610c068161150c56fe616161616161616161616161616161616161613d3d3d3d3d3d3d3d3d3d3d3d3d3d3d3d3d3d3d3d3d3d3d3d3d3d3d3d3d3d3d3d3da2646970667358221220c89b2a9bf1cbb27892ce11b493d82e029edd99e0f1afa1f3c936d69ad384a71e64736f6c63430008110033",
  "linkReferences": {},
  "deployedLinkReferences": {}
}